:03000000020EA845
:0C0EA800787FE4F6D8FD758169020EEF3A
:01000A0022D3
:0415D7007F02DFFEB2
:0115DB0022ED
:0415DC007F04DFFEAB
:0115E00022E8
:0515BF00007F14DFFEB7
:0115C4002204
:0415E1007F19DFFE91
:0115E50022E3
:0515C500007F2BDFFE9A
:0115CA0022FE
:0515CB00007F59DFFE66
:0115D00022F8
:0515D100007FE3DFFED6
:0115D60022F2
:09154E00007F027E0FDEFEDFFCCF
:011557002271
:09155800007F027E54DEFEDFFC80
:011561002267
:09156200007F047E92DEFEDFFC36
:01156B00225D
:081594007F097EF4DEFEDFFC9E
:01159C00222C
:08159D007F127EEBDEFEDFFC95
:0115A5002223
:0815A6007F2D7ED0DEFEDFFC8C
:0115AE00221A
:10141300D3EF9400EE940040147D6E7C00ED1D70BC
:0D142300011CED4C70F7EF1F70E61E80E31A
:011430002299
:10115E000958000000000000000000016100015766
:05116E00000262000018
:10139100E4F532D2A212000AC2A21215D1D2A212CF
:1013A10015C520A205E4F53280037532FF1215D16F
:0213B100AF3259
:0113B3002217
:02120F008F321C
:10121100E4F533D2A212000AC2A212000AE532306A
:10122100E004D2A28002C2A21215BFE532C313F5B7
:0F123100320533E533C3940840D9D2A202000A34
:10124000E4F533F532E533C313F533D2A212000AC5
:10125000C2A212000AD2A212000A30A203433380B3
:0E1260001215BF0532E532C3940840D9AF33F2
:01126E00225D
:10111C00E4F51AFFF51B121391EF60037FFF227F9A
:10112C003312120FE4F51A1212407458251AF8A64D
:10113C0007051AE51AC3940840ED7B007A0079582C
:10114C007D071212F78F1BE51BB55F037F00227F13
:01115C00FF93
:01115D00226F
:1013B400E4FF121391EF60037FFF227FCC12120F20
:1013C4007F4412120FE4F562F563F561755701FF6E
:0113D40022F6
:10126F00E4FF121391EF60037FFF227FCC12120F66
:10127F007FBE12120FE4F53112124074582531F867
:0D128F00A6070531E531C3940940ED7F004D
:01129C00222F
:060F34008B2D8A2E892F8F
:100F3A007FFFE4F53012126FBFFF037FFF227B00B1
:100F4A007A0079587D081212F78F30E530656060B3
:100F5A00037FFF22E55954F86010E5595407FEE56E
:100F6A0058FFC3E49FFDE49E8006E5595407AD5837
:100F7A00FCE41202B3E4FBFA7980783D12011EAB5D
:0A0F8A002DAA2EA92F12066A7F007F
:010F9400223A
:06129D008F178D188B195C
:1012A300E4FF121391EF60037FFF227FCC12120F32
:1012B3007F4E12120FAF1712120FAF1812120FAF89
:0612C3001912120F7F005A
:0112C9002202
:10143100E4FF121391EF60037FFF227FCC12120FA2
:0A1441007F4812120F1215627F009F
:01144B00227E
:0A156C00C2A4C2A11215B80214AF08
:02108A008F6471
:10108C00E4FFFEC2A4C2A112000AD2A4E56425E0CA
:10109C004481FFE4FEC2A1EF30E004D2A08002C282
:1010AC00A0D2A1EFC313FF0EBE08EAE4FFD2A0FE4C
:1010BC00EFC313FFC2A130A003430780D2A10EBE21
:0610CC0008EEC2A1C2A45F
:0110D20022FB
:040FEE008F1C8D1DAA
:100FF200E4FFFEC2A4C2A112000AD2A4E51C25E0AD
:101002004481FFE4FEC2A1EF30E004D2A08002C21C
:10101200A0D2A1EFC313FF0EBE08EAAF1DE4FEC2C9
:10102200A1EF30E004D2A08002C2A0D2A1EFC3138C
:09103200FF0EBE08EAC2A1C2A42F
:01103B002292
:0210D3008F6527
:1010D500E4FFFEC2A4C2A112000AD2A4E56525E080
:1010E50044C1FFE4FEC2A1EF30E004D2A08002C2F9
:1010F500A0D2A1EFC313FF0EBE08EAE4FFD2A0FE03
:10110500EFC313FFC2A130A003430780D2A10EBED7
:0611150008EEC2A1C2A415
:01111B0022B1
:04103C008F1E8D1F57
:10104000E4FFFEC2A4C2A112000AD2A4E51E25E05C
:1010500044C1FFE4FEC2A1EF30E004D2A08002C28E
:10106000A0D2A1EFC313FF0EBE08EAAF1FE4FEC279
:10107000A1EF30E004D2A08002C2A0D2A1EFC3133E
:09108000FF0EBE08EAC2A1C2A4E1
:011089002244
:0E14BF00EFC4540F75F00AA4FEEF540F2EFF79
:0114CD0022FC
:0B13D50075F03CAD07ED84ADF0AF05F6
:1013E000E4EF75F00A84C454F0FEEF75F00A84E56A
:0313F000F04EFFBD
:0113F30022D7
:0B150600E4FF12108A53077F1214BF8D
:0115110022B7
:0A1576001213D5AD07E4FF020FEEDB
:10149F00E4FDFF12108AAD07430580E4FF020FEE53
:1014AF00E4FDFF12108AAD0753057FE4FF020FEE34
:09158000E4FF0F12108A1214BFDF
:01158900223F
:0A158A001213D5AD077F01020FEE2A
:0B1512007F0212108A53073F1214BF23
:01151D0022AB
:0D14F90075F0181213D8AD077F02020FEE38
:0B151E007F0312108A53073F1214BF16
:01152900229F
:020DD6008F6626
:100DD800E4FB7F0412108AAB071214BFAB07EB14B5
:100DE800B40C004003020E91900DFE75F003A4C5EB
:100DF8008325F0C58373020E22020E34020E2202EE
:100E08000E81020E22020E81020E22020E22020E14
:100E180081020E22020E81020E22E566D3941F5033
:100E280007E566C3940150617BFF805D7F06121061
:100E38008AAB071214BFAB07EB54037009EB75F0CC
:100E48006484E5F0700FEBFF7E007C017D90120654
:100E580007ED4C7012E566C394014007E566D3942C
:100E68001D40267BFF8022E566C394014007E566A6
:100E7800D3941C40147BFF8010E566D3941E500762
:100E8800E566C3940150027BFFEBF46010AF661275
:0F0E980013E08F66AD667F03120FEEE4FBAF032E
:010EA7002228
:0B152A007F0412108A53071F1214BF29
:011535002293
:02134700AD07F0
:10134900E4F567EDC394014006EDD3940C400575AF
:1013590067FF800CAF051213E0AD077F04120FEE93
:02136900AF676C
:01136B00225F
:0B1536007F0512108A5307071214BF34
:011541002287
:02136C00AD07CB
:10136E00E4F568EDC394014006EDD394074005758E
:10137E0068FF800CAF051213E0AD077F05120FEE6C
:02138E00AF6846
:01139000223A
:0815AF007F0612108A1214BF1E
:0115B7002211
:0213F400AD0743
:1013F600E4F569EDD3946340057569FF800CAF058C
:0C1406001213E0AD077F06120FEEAF6975
:0114120022B7
:070003007D807F07020FEE74
:0715B800E4FD7F07020FEEC6
:0415E600E4F5902276
:0415EA007590FF22D7
:0F14CE007401A807088002C333D8FCF45290229F
:0E14DD007401A807088002C333D8FC42902295
:0E14EB007401A807088002C333D8FC62902267
:1011D800746869732069732074656D7072617475C1
:1011E8007265206D65746572210D0A0074656D70F5
:1011F8003A25322E32660D0A0074656D703A2D2537
:07120800322E32660D0A00D0
:101173000F08000000000000000000000000000055
:01118300006B
:100B4D00E4F522F523F524F525F526F52AF529F505
:100B5D0028F527F52BF52C12146512000E12144CE6
:100B6D007BFF7A1179D812148CE52C7010752C013D
:100B7D001213B48F22E522B4FF03E4F52CE5616472
:100B8D00016003020C91F5617F011214EB7B007A79
:100B9D00007927120F348F22E5226003020C86FFA5
:100BAD00FEFDFCAB2AAA29A928A827120224AF2AE8
:100BBD00AE29AD28AC27601240101202EC8F2B75B8
:100BCD0030FF7531117532F480111202ECEFF4041F
:100BDD00F52B7530FF753112753201852A36852951
:100BED00358528348527337B007A00790812073A3A
:100BFD00E52B75F00A84F523E52B75F00A8485F055
:100C0D0024E4FFFEFDFCAB2AAA29A928A82712027D
:100C1D0024601A4018AC2BE41202B8A804A905AA46
:100C2D0006AB07AF2AAE29AD28AC278029AF2AAE77
:100C3D0029AD28AC2712029DC004C005C006C0070F
:100C4D00AC2BE41202B8A804A905AA06AB07D0077D
:100C5D00D006D005D004120029E4FBFA79C87842F9
:100C6D0012011E1202EC8F2BE52B75F00A84F5256F
:100C7D00E52B75F00A8485F026E4F52CFB7A0079D6
:100C8D000812148CE4FFFEFDFCAB2AAA29A928A8A2
:100C9D00271202247D07600640047F1280027F1117
:100CAD001212CA7D06AF231212CA7D05AF2412128D
:100CBD00CA7D057F101212CA7D04AF251212CA7D9E
:090CCD0003AF261212CA020B76D5
:101479003F065B4F666D7D077F6F777C395E7971BB
:03148900804000A0
:10146500D2A7E4F580C2A7D2A6F5807F02FE1214AA
:0414750013C2A622D6
:1012CA00D2A7C374079DFE7401A806088002C3331F
:1012DA00D8FCF4F580C2A7D2A6EF90147993F580D2
:0D12EA007F027E00121413E4F580C2A622DC
:10000E005389F0438901758CFC758A62C28DD2A921
:05001E00D2AFD28C22DC
:0315EE00D28C227A
:0315F100C28C2287
:03000B00020F954C
:100F9500C0E0C0D075D000C000758CFC758A62E5D4
:100FA50056B4011C0554E554D3940A4013755600F4
:100FB50075530175540074492555F876007555002B
:100FC500E557B4011D0563E56370020562D394849A
:100FD500E5629403400C75620075630075570075F2
:090FE5006101D000D0D0D0E0324F
:101184000153000A490000000000000000000001B3
:08119400550001560001540052
:10144C0053877F75985053890F438920758BFD7591
:09145C008DFDD2ACD2AFD28E227C
:0C154200C2AC8F993099FDC299D2AC2246
:10148C001205AFFF600C121542740129F9E43AFA07
:03149C0080EE22BD
:0300230002119D2A
:10119D00C0E0C0D075D000C000309904C299802441
:1011AD00309821755601C29875540074492555F82B
:1011BD00A6990555E555B4090B2449F876007555E2
:0B11CD0000755301D000D0D0D0E032FC
:100CD600005EBCE2613FDD83C29C7E20A3FD1F4116
:100CE6009DC3217FFCA2401E5F01E3BD3E6082DC06
:100CF600237D9FC1421CFEA0E1BF5D0380DE3C62F6
:100D0600BEE0025CDF81633D7C22C09E1D43A1FFE5
:100D16004618FAA427799BC584DA3866E5BB5907D5
:100D2600DB856739BAE406581947A5FB7826C49AC5
:100D3600653BD987045AB8E6A7F91B45C6987A24B5
:100D4600F8A6441A99C7257B3A6486D85B05E7B9A5
:100D56008CD2306EEDB3510F4E10F2AC2F7193CD95
:100D6600114FADF3702ECC92D38D6F31B2EC0E5085
:100D7600AFF1134DCE90722C6D33D18F0C52B0EE75
:100D8600326C8ED0530DEFB1F0AE4C1291CF2D7365
:100D9600CA947628ABF517490856B4EA6937D58B55
:100DA6005709EBB536688AD495CB2977F4AA481645
:100DB600E9B7550B88D6346A2B7597C94A14F6A835
:100DC600742AC896154BA9F7B6E80A54D7896B3525
:0612F7008B318A328933BD
:1012FD00E4FFFEEEC39D501AAB310533E533AA3240
:10130D007002053214F91205AF6F900CD693FF0ED3
:02131D0080E16D
:01131F0022AB
:10002600020358E86480F8E933E83360110460F0AD
:10003600ED33EC337009E8FCE9FDEAFEEBFF220440
:1000460060DED3EB9FEA9EE99DE8C2E78CF0C2F73B
:1000560095F0400CE8CCF8E9CDF9EACEFAEBCFFB07
:1000660012032385D0F05804700320D5B3E804703A
:10007600075002B2D502036292D5EC0460F7E4CCD5
:10008600C0E0C398F8603B94186008400DD0E0FBD0
:1000960002033AE4FBFAC9FC8028E830E406E4C926
:1000A600FBE4CAFCE830E305E4C9CACBFCE8540724
:1000B6006010F8C3E913F9EA13FAEB13FBEC13FC2F
:1000C600D8F130F52FC3E49CFCEF9BFFEE9AFEEDD2
:1000D60099FDD0E0FBEF4E4D4C701222DB0302037C
:1000E6005FEC2CFCEF33FFEE33FEED33FDED30E736
:1000F600EB02033AEF2BFFEE3AFEED39FDD0E0FBC3
:1001060050130BBB0003020362ED13FDEE13FEEF6B
:0801160013FFEC13FC02033A95
:10011E00EC4D6011E8497017ED33EC3304600DE4DB
:10012E00FCFFFEFD22E933E8330470F80203581297
:10013E00032358046009E4CC248150062850090298
:10014E00036228400302035FC0E0EB4A7044B980AB
:10015E0006D0E0FB02034EEF4E701CBD8008EBFF95
:10016E00EAFEE9FD80EBE98DF0A4FEE5F002020760
:10017E00E9CDF9EAFEEBFFEF89F0A4FCE5F0CE89BC
:10018E00F0A42EFFE435F0CD89F0A42DFEE435F079
:10019E008067EF4E7005BD80D780C3EF8BF0A4ACA7
:1001AE00F0EE8BF0A42CFCE435F0F8EF8AF0A42CE2
:1001BE00E5F038FCE433CB8DF0A42CFCE5F03BF8F5
:1001CE00EE8AF0A42CFCE5F038F8E433CF89F0A4E5
:1001DE002CFCE5F038CF3400CE89F0A42FFFE5F0EB
:1001EE003EFEE433C98DF0A42EFEE5F039CD8AF043
:1001FE00A42FFFE5F03EFEE43DFD33D0E0FB5007BB
:10020E000BBB000F020362EC2CFCEF33FFEE33FE50
:06021E00ED33FD02033A7E
:1002240074F8CC6480CCC86480C8F58204604FC381
:10023400EB9FF5F0EA9E42F0E99D42F0E89C45F020
:10024400603C501DE5825FFFE582D313CB5BCBF4AA
:100254002B5582FB50280ABA002409B900200880D3
:100264001DE5825BFBE582D313CF5FCFF4C3132F6D
:100274005582FF50090EBE00050DBD00010CC3EBF5
:100284009FF5F0EA9E42F0E99D42F0E89C45F0605B
:0902940007CC4820E701B3EC227D
:10029D00ED33EC33600A047003BD8004ECB2E7FC6F
:0102AD00222E
:1002AE0075F020800E75F010800575F0087D007ECB
:1002BE00007F003392D530D50312065CEC3340102C
:1002CE00EF33FFEE33FEED33FDEC33FCD5F0ED22D4
:0E02DE00E5F0247EA2D513CC92E7CDCEFF2210
:1002EC00EDD2E7CD33EC3392D524814006E4FFFE0A
:1002FC00FDFC22FCE4CFCECDCC24E0501174FF8069
:10030C00EDC3CC13CCCD13CDCE13CECF13CF047005
:07031C00F030D5DE02065CA3
:1006DE00E5442430F8E6054422782D3007027830C0
:1006EE00E475F0011206840205AF2000EB7F2ED2D6
:1006FE00008018EF540F2490D43440D4FF30040BF4
:10070E00EF24BFB41A0050032461FFE545600215C3
:10071E00450548E5487002054730070D782DE4750C
:10072E00F001120684EF0205F50213207403D207BE
:10073E008003E4C207F5448B2D8A2E892FE4F545FC
:10074E00F547F548E54560077F2012071980F575D6
:10075E0046FFC201C200C202C203C205C206C208DF
:10076E001206E7FF700D3007057F0012072AAF480B
:10077E00AE4722B4255FC2D5C2041206E7FF24D0CD
:10078E00B40A00501A75F00A784530D50508B6FF40
:10079E000106C6A426F620D5047002D20380D92401
:1007AE00CFB41A00EF5004C2E5D204020A17D201E8
:1007BE0080C6D20080C0D20280BCD2D580BAD2050B
:1007CE0080B47F201207192002077401B54500403E
:1007DE00F11206DEFF120719020752D208D2068066
:1007EE00951206DEFB1206DEFA1206DEF94A4B7091
:1007FE0006790E7A0B7BFF20022EE545602A7E00DD
:10080E008E827583001205C860060EEE654670F086
:10081E00C2D5EBC0E0EAC0E0E9C0E0EE120A77D044
:10082E00E0F9D0E0FAD0E0FB1205AFFF60AAEBC012
:10083E00E0EAC0E0E9C0E0120719D0E02401F9D0E7
:10084E00E03400FAD0E0FBE5460460DCD546D98002
:10085E0087D20280A2120A5A60F7E546700104128E
:10086E00036DA946600DE546600914F546120B01AD
:10087E00EF60F3EA30E702F404C3995077EAF42507
:10088E00460430E701E404F546800D120A5A60C1B1
:10089E00EA0546254612036DEA7843F630E701E491
:1008AE00254604D5460420050114120A77E4C0E05B
:1008BE00120B017843E6601320E70714F6120701C6
:1008CE00802204F6D0E014C0E07F00120701E54656
:1008DE0060071206F81546800B3005031206F8D095
:1008EE00E0020752D0E00480C5120A5A60A0E54625
:1008FE000412036D7843EAF6E54620050260010412
:05090E002404120A7729
:1009130074FF04C0E0120B01120701E54620050233
:1009230060031206F8D0E0B546E87F4512070B785E
:1009330043E67F2B30E7047F2DF404C0E012071950
:10094300D0E075F00A84C0F0120702D0E01207026B
:10095300020752791080027908C206C2088008D2C1
:10096300D5790A8004790AC2D5E546047002F546B2
:10097300E4FAFDFEFF1206DEFC7B082001131206DB
:10098300DEFD7B1030000A1206DEFE1206DEFF7B60
:1009930020EC3382D592D55013C3E43000069FFF79
:1009A300E49EFEE42001039DFDE49CFCE4CBF8C23D
:1009B30001EC700CCFCECDCCE824F8F870F380179F
:1009C300C3EF33FFEE33FEED33FDEC33FCEB33FBD0
:1009D300994002FB0FD8E9EB300105F8D0E0C44899
:1009E300B201C0E00AEC4D4E4F78207B0070C2EAA2
:1009F300B5460040BCC0E0120A79D0F0D0E0200137
:100A030004C4C0E0C4B201C0F0120702D0F0D5F0B4
:100A1300EB02075212069407EF5309565807C04CCE
:100A230007BC42095A4F09624409624907D5430981
:100A3300685508994608F7450863470B2E5007C4C5
:100A43002D07C82E07EB2B07CC2307E9200B172A0A
:100A5300078448000007E3E546B4FF037546061222
:100A630006DEFC1206DEFD1206DEFE1206DEFF784F
:100A73003C02039C790AA2D5200314300509B9105E
:100A8300020404B9080104A2D5200602500104207F
:100A930002689202B545005034C0E07F203003194C
:100AA3007F30A20272067205500F120AD0C202C230
:100AB30006C205C2087F30800F300503E9C0E0128B
:100AC3000719300503D0E0F9D0E0B545CC30051760
:100AD3007F30B9100C1207197F583004077F7880D4
:100AE30003B908031207193002057F2D0207197F86
:100AF300202008F87F2B2006F322920280CF7F006C
:100B0300B407005005243CF8E6FF22286E756C6C90
:100B13002900D2011206DE3001F8C201784530D532
:100B23000108F60207842D504349581206DE2403B8
:100B3300B405004001E4900B299312070A743A129A
:0A0B4300070AD203754504020956A3
:10032300E9D2E7C933E833F892D5EDD2E7CD33EC20
:0703330033FC5002B2D52299
:10033A00EC30E7100FBF000C0EBE00080DBD000424
:10034A000BEB6014A2D5EB13FCED92E7FD2274FFD0
:10035A00FCFDFEFF22E480F8A2D574FF13FC7D8029
:03036A00E480EF3D
:10036D00F920E72824F950037907E4F42402FB1857
:10037D00DBFDE624FB5014E9600DE4F618E604F607
:0F038D00B40A08E4F6D9F57401F60A22C2D522A3
:10039C00ED33EC3392D5FA602AB4FF33EDC2E77B30
:1003AC00FF60067A0379C1E4227A0379CA20D50466
:1003BC007A0379C5224E614E002B494E46002D49D9
:1003CC004E4600E47A08F608DAFC7B00740722E853
:1003DC00C0E0ECC0E0EDC0E0EEC0E0EFC0E0EA75DC
:1003EC00F010A4CAABF075F04DA42BFBE435F0FC77
:1003FC00EA2410FAEB34C5FBEC34D9FCEDC2E7FF70
:10040C0075F056A4F42411C5F0F434C58FF0A42A69
:10041C00E5F03BE43CF620E71412056FD0E0FFD08A
:10042C00E0FED0E0FDD0E0FC1204A28014F4041233
:10043C00056FD0E0FFD0E0FED0E0FDD0E0FC120173
:10044C001ED0E0F8E6FAEDD2E7CD33EC332482FB94
:10045C00E4C3CF33CFCE33CECD33CD33DBF37B07F9
:10046C0075F00A846004F6081B0AE5F0F6088FF0B4
:10047C00740AA4FFACF08EF0740AA42CFEACF050FD
:10048C00010C8DF0740AA42CFDE435F0F608DBDECB
:03049C00740722C0
:10049F00020362EC5D046005E8590470030203581F
:1004AF00120323580460F6EC4860F2EC7004FDFE72
:1004BF00FF22C860DB2481C85009C3986002500630
:1004CF0002035F9850CAF582E9294B4A7005AB8247
:1004DF0002034E75F0007C1A7880C3EF9BEE9AED05
:1004EF0099400DC3EF9BFFEE9AFEED99FDE842F0A8
:1004FF00DC23ACF0D0E0FFD0E0FED0E0FDAB8220FB
:10050F00E7101BEB60BAEC2CFCEF33FFEE33FEED84
:10051F0033FD02033AE803F830E705C0F075F00049
:10052F00EF2FFFEE33FEED33FD40B830E7C280AA68
:10053F003F8000004120000042C80000447A0000C4
:10054F00461C400047C35000497424004B18968046
:10055F004CBEBC205A0E1BCA6753C21C749DC5AE3D
:10056F00FB60065407601C232312059DEB54386073
:10057F000912058912059812011EECF8EDF9EEFA31
:10058F00EFCB22EB12059880F1543803241C900511
:10059F003FFE93FC0EEE93FD0EEE930ECE93FF22D5
:100EB400020B4DE493A3F8E493A34003F68001F2FC
:100EC40008DFF48029E493A3F85407240CC8C3333F
:100ED400C4540F4420C8834004F456800146F6DF0E
:100EE400E4800B010204081020408090115EE47E2F
:100EF400019360BCA3FF543F30E509541FFEE49303
:100F0400A360010ECF54C025E060A840B8E493A3C9
:100F1400FAE493A3F8E493A3C8C582C8CAC583CAF4
:100F2400F0A3C8C582C8CAC583CADFE9DEE780BEAC
:01119C000052
:1005AF00BB010689828A83E0225002E722BBFE024A
:0905BF00E32289828A83E493227D
:1005C800BB010CE58229F582E5833AF583E02250E8
:1005D80006E92582F8E622BBFE06E92582F8E22232
:0D05E800E58229F582E5833AF583E493224C
:1005F500BB010689828A83F0225002F722BBFE01E5
:02060500F322DE
:10060700BC000BBE0029EF8DF084FFADF022E4CCD7
:10061700F875F008EF2FFFEE33FEEC33FCEE9DECA0
:10062700984005FCEE9DFE0FD5F0E9E4CEFD22EDE6
:10063700F8F5F0EE8420D21CFEADF075F008EF2F30
:10064700FFED33FD4007985006D5F0F222C398FD21
:050657000FD5F0EA22BE
:0E065C00C3E49FFFE49EFEE49DFDE49CFC22AF
:10066A00BB010789828A830206C65005E9F8020699
:0A067A00BABBFE05E9F80206D22221
:10068400FAE6FB0808E6F925F0F618E6CA3AF62277
:10069400D083D082F8E4937012740193700DA3A3F5
:1006A40093F8740193F5828883E473740293686009
:0606B400EFA3A3A380DF09
:10132000EFB40A07740D12132B740A309811A899A0
:10133000B8130CC2983098FDA899C298B811F6302D
:0713400099FDC299F5992205
:0C06BA00ECF608EDF608EEF608EFF6226C
:0C06C600ECF0A3EDF0A3EEF0A3EFF022A7
:0C06D200ECF208EDF208EEF208EFF22264
:00000001FF
